:100000000C942A000C943F000C943F000C943F0089
:100010000C943F000C943F000C943F000C943F0064
:100020000C943F000C943F000C943F000C943F0054
:100030000C943F000C943F000C943F000C943F0044
:100040000C943F000C943F000C943F000C943F0034
:100050000C943F0011241FBECFE5D8E0DEBFCDBF1A
:1000600010E0A0E6B0E0EAE6FFE002C005900D92E5
:10007000AE38B107D9F70E9485040C94B3070C94ED
:100080000000CF93DF93CDB7DEB7AF970FB6F894EC
:10009000DEBF0FBECDBF8FA788E390E02FA5FC0188
:1000A000208385E390E025E330E0F90120812E7F75
:1000B000FC01208385E390E025E330E0F901208115
:1000C0002D7FFC01208385E390E025E330E0F901FA
:1000D00020812460FC01208380E090E0A0E8BFE361
:1000E00089839A83AB83BC832BEA3AEA4AE250E4E1
:1000F00069817A818B819C810E944607DC01CB015A
:100100008B8B9C8BAD8BBE8B89819A81AB81BC81A3
:100110009C01AD01BC01CD010E94BA05DC01CB01FF
:100120008F8B988FA98FBA8F20E030E040E85FE393
:100130006B897C898D899E890E94260688231CF400
:1001400081E08B8FB2C020E03FEF4FE757E46F892B
:10015000788D898D9A8D0E94410718160CF07BC00E
:1001600020E030E04AE754E469817A818B819C8108
:100170000E942B06DC01CB018C8F9D8FAE8FBF8F31
:1001800020E030E04AEF54E46C8D7D8D8E8D9F8DA4
:100190000E944607DC01CB0188A399A3AAA3BBA3B5
:1001A00020E030E040E85FE368A179A18AA19BA14B
:1001B0000E94260688232CF481E090E09DA38CA366
:1001C0003FC020E03FEF4FE757E468A179A18AA143
:1001D0009BA10E94410718164CF520E030E040E258
:1001E00051E46C8D7D8D8E8D9F8D0E944607DC01C4
:1001F000CB01BC01CD010E949D06DC01CB019DA37A
:100200008CA30FC088EC90E09FA38EA38EA19FA12A
:100210000197F1F79FA38EA38CA19DA101979DA3A8
:100220008CA38CA19DA1892B69F73FC068A179A1FE
:100230008AA19BA10E949D06DC01CB019DA38CA3FA
:100240008CA19DA199A788A788A599A50197F1F7E9
:1002500099A788A72AC020E030E04FE753E46B89D4
:100260007C898D899E890E9441071816ACF46F899C
:10027000788D898D9A8D0E949D06DC01CB019BA70C
:100280008AA78AA59BA59DA78CA78CA59DA501974C
:10029000F1F79DA78CA70FC06B897C898D899E89FA
:1002A0000E949D06DC01CB018B8F8B8D8EA78EA5C6
:1002B0008A95F1F78EA785E390E025E330E0F90118
:1002C00020812B7FFC01208380E090E0A0E4B0E45B
:1002D0008D839E83AF83B88720E030E04AEF54E4FB
:1002E0006D817E818F8198850E944607DC01CB015C
:1002F00089879A87AB87BC8720E030E040E85FE3DE
:1003000069857A858B859C850E94260688232CF436
:1003100081E090E09E878D873FC020E03FEF4FE770
:1003200057E469857A858B859C850E94410718165C
:100330004CF520E030E040E251E46D817E818F8118
:1003400098850E944607DC01CB01BC01CD010E94CB
:100350009D06DC01CB019E878D870FC088EC90E065
:10036000988B8F878F8598890197F1F7988B8F8766
:100370008D859E8501979E878D878D859E85892B8E
:1003800069F714C069857A858B859C850E949D06D6
:10039000DC01CB019E878D878D859E859A8B898B0D
:1003A00089899A890197F1F79A8B898B0000AF961A
:1003B0000FB6F894DEBF0FBECDBFDF91CF91089589
:1003C000CF93DF93CDB7DEB7AF970FB6F894DEBF0C
:1003D0000FBECDBF8FA788E390E02FA5FC0120833F
:1003E00085E390E025E330E0F90120812160FC0104
:1003F000208385E390E025E330E0F90120812D7F23
:10040000FC01208385E390E025E330E0F9012081C1
:100410002460FC01208380E090E0A0E8BFE38983B2
:100420009A83AB83BC832BEA3AEA4AE250E46981BF
:100430007A818B819C810E944607DC01CB018B8BEA
:100440009C8BAD8BBE8B89819A81AB81BC819C01D9
:10045000AD01BC01CD010E94BA05DC01CB018F8B3F
:10046000988FA98FBA8F20E030E040E85FE36B8976
:100470007C898D899E890E94260688231CF481E050
:100480008B8FB2C020E03FEF4FE757E46F89788D44
:10049000898D9A8D0E94410718160CF07BC020E0D0
:1004A00030E04AE754E469817A818B819C810E9423
:1004B0002B06DC01CB018C8F9D8FAE8FBF8F20E090
:1004C00030E04AEF54E46C8D7D8D8E8D9F8D0E94BF
:1004D0004607DC01CB0188A399A3AAA3BBA320E014
:1004E00030E040E85FE368A179A18AA19BA10E9466
:1004F000260688232CF481E090E09DA38CA33FC0C6
:1005000020E03FEF4FE757E468A179A18AA19BA1C2
:100510000E94410718164CF520E030E040E251E41B
:100520006C8D7D8D8E8D9F8D0E944607DC01CB01E9
:10053000BC01CD010E949D06DC01CB019DA38CA3D3
:100540000FC088EC90E09FA38EA38EA19FA101977E
:10055000F1F79FA38EA38CA19DA101979DA38CA3CE
:100560008CA19DA1892B69F73FC068A179A18AA1BF
:100570009BA10E949D06DC01CB019DA38CA38CA1B5
:100580009DA199A788A788A599A50197F1F799A793
:1005900088A72AC020E030E04FE753E46B897C89CC
:1005A0008D899E890E9441071816ACF46F89788D59
:1005B000898D9A8D0E949D06DC01CB019BA78AA79D
:1005C0008AA59BA59DA78CA78CA59DA50197F1F752
:1005D0009DA78CA70FC06B897C898D899E890E94FD
:1005E0009D06DC01CB018B8F8B8D8EA78EA58A9506
:1005F000F1F78EA785E390E025E330E0F901208153
:100600002B7FFC01208380E090E0A0E8BFE38D8396
:100610009E83AF83B88720E030E04AEF54E46D81D9
:100620007E818F8198850E944607DC01CB018987F6
:100630009A87AB87BC8720E030E040E85FE36985BC
:100640007A858B859C850E94260688232CF481E080
:1006500090E09E878D873FC020E03FEF4FE757E453
:1006600069857A858B859C850E94410718164CF513
:1006700020E030E040E251E46D817E818F819885F9
:100680000E944607DC01CB01BC01CD010E949D0602
:10069000DC01CB019E878D870FC088EC90E0988BA2
:1006A0008F878F8598890197F1F7988B8F878D8534
:1006B0009E8501979E878D878D859E85892B69F7FD
:1006C00014C069857A858B859C850E949D06DC0116
:1006D000CB019E878D878D859E859A8B898B898995
:1006E0009A890197F1F79A8B898B0000AF960FB624
:1006F000F894DEBF0FBECDBFDF91CF910895CF93A9
:10070000DF93CDB7DEB72E970FB6F894DEBF0FBEDE
:10071000CDBF84E390E02FEFFC01208387E390E0DE
:100720002FEFFC01208380E090E0A0EAB1E4898310
:100730009A83AB83BC8320E030E04AEF54E46981C4
:100740007A818B819C810E944607DC01CB018D83DD
:100750009E83AF83B88720E030E040E85FE36D819F
:100760007E818F8198850E94260688232CF481E063
:1007700090E09A8789873FC020E03FEF4FE757E43A
:100780006D817E818F8198850E94410718164CF5F6
:1007900020E030E040E251E469817A818B819C81E4
:1007A0000E944607DC01CB01BC01CD010E949D06E1
:1007B000DC01CB019A8789870FC088EC90E09C8789
:1007C0008B878B859C850197F1F79C878B87898523
:1007D0009A8501979A87898789859A85892B69F7F0
:1007E00014C06D817E818F8198850E949D06DC01F9
:1007F000CB019A87898789859A859E878D878D8584
:100800009E850197F1F79E878D8788E30E944100BE
:100810008CE00E94410086E00E94410081E00E943D
:10082000410080E80E94410000002E960FB6F89427
:10083000DEBF0FBECDBFDF91CF910895CF93DF9381
:1008400000D000D0CDB7DEB79C838B831A8219828B
:100850000FC089819A812B813C81820F931FFC01FB
:1008600080810E94E00189819A8101969A8389831F
:1008700089819A812B813C81820F931FFC018081A9
:10088000882339F700000F900F900F900F90DF91A1
:10089000CF910895CF93DF9300D000D0CDB7DEB7CE
:1008A00089836A835C834B838981882349F48A81A5
:1008B000803134F48A818F7080680E9441000BC0BF
:1008C0008981813041F48A8180312CF48A818F7052
:1008D000806C0E9441008B819C810E941E0400005C
:1008E0000F900F900F900F90DF91CF910895CF93BD
:1008F000DF93CDB7DEB781E00E94410080E80E941F
:1009000041000000DF91CF910895CF93DF93CDB7E1
:10091000DEB7A0970FB6F894DEBF0FBECDBF0E9422
:100920007F0380E690E00E941E0480EC0E9441005C
:1009300081E790E00E941E0480E090E4ACE9B5E419
:1009400089879A87AB87BC8720E030E04AEF54E480
:1009500069857A858B859C850E944607DC01CB01E1
:100960008D879E87AF87B88B20E030E040E85FE35B
:100970006D857E858F8598890E94260688232CF4B4
:1009800081E090E09A8B898B3FC020E03FEF4FE7FA
:1009900057E46D857E858F8598890E9441071816DA
:1009A0004CF520E030E040E251E469857A858B85A2
:1009B0009C850E944607DC01CB01BC01CD010E9451
:1009C0009D06DC01CB019A8B898B0FC088EC90E0EF
:1009D0009C8B8B8B8B899C890197F1F79C8B8B8BE4
:1009E00089899A8901979A8B898B89899A89892B18
:1009F00069F714C06D857E858F8598890E949D0654
:100A0000DC01CB019A8B898B89899A899E8B8D8B8E
:100A10008D899E890197F1F79E8B8D8B81E00E94D5
:100A2000410080E80E9441008DE790E09E838D8325
:100A30008D819E810E941E0480EC0E94410084E30F
:100A400090E024E330E0F9012081277FFC0120833E
:100A500085E390E025E330E0F90120812860FC0186
:100A6000208383E390E0FC018081882F90E08870F0
:100A7000992798878F838F819885892B91F784E8B0
:100A800090E00E941E0480E090E0AAEFB3E4898326
:100A90009A83AB83BC8320E030E04AEF54E4698161
:100AA0007A818B819C810E944607DC01CB018F8B70
:100AB000988FA98FBA8F20E030E040E85FE36F891C
:100AC000788D898D9A8D0E94260688232CF481E0EA
:100AD00090E09C8F8B8F3FC020E03FEF4FE757E4C3
:100AE0006F89788D898D9A8D0E94410718164CF573
:100AF00020E030E040E251E469817A818B819C8181
:100B00000E944607DC01CB01BC01CD010E949D067D
:100B1000DC01CB019C8F8B8F0FC088EC90E09E8F07
:100B20008D8F8D8D9E8D0197F1F79E8F8D8F8B8D83
:100B30009C8D01979C8F8B8F8B8D9C8D892B69F75A
:100B400014C06F89788D898D9A8D0E949D06DC0175
:100B5000CB019C8F8B8F8B8D9C8D98A38F8F8F8DCE
:100B600098A10197F1F798A38F8F81E00E9441002F
:100B700078CF5058BB27AA270E94D1050C940707AD
:100B80000E94F90638F00E94000720F039F49F3FD8
:100B900019F426F40C94F6060EF4E095E7FB0C9499
:100BA000F006E92F0E94180758F3BA176207730777
:100BB0008407950720F079F4A6F50C943A070EF413
:100BC000E0950B2EBA2FA02D0B01B90190010C015D
:100BD000CA01A0011124FF27591B99F0593F50F475
:100BE000503E68F11A16F040A22F232F342F4427CD
:100BF000585FF3CF469537952795A795F0405395C5
:100C0000C9F77EF41F16BA0B620B730B840BBAF094
:100C10009150A1F0FF0FBB1F661F771F881FC2F7FF
:100C20000EC0BA0F621F731F841F48F48795779513
:100C30006795B795F7959E3F08F0B0CF9395880FCD
:100C400008F09927EE0F9795879508950E94CC0696
:100C500008F481E008950E943F060C9407070E9463
:100C6000000758F00E94F90640F029F45F3F29F090
:100C70000C94F00651110C943B070C94F6060E945C
:100C8000180768F39923B1F3552391F3951B550B7E
:100C9000BB27AA2762177307840738F09F5F5F4F4F
:100CA000220F331F441FAA1FA9F335D00E2E3AF08E
:100CB000E0E832D091505040E695001CCAF72BD0A6
:100CC000FE2F29D0660F771F881FBB1F26173707F7
:100CD0004807AB07B0E809F0BB0B802DBF01FF2729
:100CE00093585F4F3AF09E3F510578F00C94F00610
:100CF0000C943B075F3FE4F3983ED4F386957795D9
:100D00006795B795F7959F5FC9F7880F911D9695E1
:100D1000879597F90895E1E0660F771F881FBB1F3D
:100D2000621773078407BA0720F0621B730B840BEA
:100D3000BA0BEE1F88F7E09508950E94200788F00F
:100D40009F5798F0B92F9927B751B0F0E1F0660F8F
:100D5000771F881F991F1AF0BA95C9F714C0B130D0
:100D600091F00E943A07B1E008950C943A07672F7A
:100D7000782F8827B85F39F0B93FCCF386957795FF
:100D80006795B395D9F73EF49095809570956195E8
:100D90007F4F8F4F9F4F0895990F0008550FAA0B53
:100DA000E0E8FEEF16161706E807F907C0F012167E
:100DB0001306E407F50798F0621B730B840B950B81
:100DC00039F40A2661F0232B242B252B21F40895D6
:100DD0000A2609F4A140A6958FEF811D811D089573
:100DE00097F99F6780E870E060E008959FEF80ECDE
:100DF000089500240A941616170618060906089581
:100E000000240A9412161306140605060895092EE6
:100E10000394000C11F4882352F0BB0F40F4BF2B55
:100E200011F460FF04C06F5F7F4F8F4F9F4F089595
:100E300057FD9058440F551F59F05F3F71F047958B
:100E4000880F97FB991F61F09F3F79F08795089570
:100E5000121613061406551FF2CF4695F1DF08C08F
:100E6000161617061806991FF1CF869571056105AC
:100E700008940895E894BB2766277727CB0197F954
:100E800008950E94CC0608F48FEF08950E94590738
:100E90000C9407070E94F90638F00E94000720F022
:100EA000952311F00C94F0060C94F60611240C9482
:100EB0003B070E94180770F3959FC1F3950F50E010
:100EC000551F629FF001729FBB27F00DB11D639FFC
:100ED000AA27F00DB11DAA1F649F6627B00DA11DA2
:100EE000661F829F2227B00DA11D621F739FB00D48
:100EF000A11D621F839FA00D611D221F749F3327B8
:100F0000A00D611D231F849F600D211D822F762F50
:100F10006A2F11249F5750409AF0F1F088234AF02D
:100F2000EE0FFF1FBB1F661F771F881F9150504099
:100F3000A9F79E3F510580F00C94F0060C943B07F6
:100F40005F3FE4F3983ED4F3869577956795B79520
:100F5000F795E7959F5FC1F7FE2B880F911D96953A
:0A0F6000879597F90895F894FFCFE4
:100F6A00416C69656E566173696F6E2047616D6584
:100F7A0000202020204353452D333036005265612E
:0E0F8A00647921004649524521207C3E00003A
:00000001FF
